{
  "abi": [
    {
      "inputs": [
        {
          "internalType": "contract IERC20",
          "name": "_token",
          "type": "address"
        }
      ],
      "stateMutability": "nonpayable",
      "type": "constructor"
    },
    {
      "anonymous": false,
      "inputs": [
        {
          "indexed": true,
          "internalType": "address",
          "name": "previousOwner",
          "type": "address"
        },
        {
          "indexed": true,
          "internalType": "address",
          "name": "newOwner",
          "type": "address"
        }
      ],
      "name": "OwnershipTransferred",
      "type": "event"
    },
    {
      "inputs": [
        {
          "internalType": "address",
          "name": "_recipient",
          "type": "address"
        },
        {
          "internalType": "uint256",
          "name": "_amount",
          "type": "uint256"
        }
      ],
      "name": "drip",
      "outputs": [],
      "stateMutability": "nonpayable",
      "type": "function"
    },
    {
      "inputs": [],
      "name": "limit",
      "outputs": [
        {
          "internalType": "uint256",
          "name": "",
          "type": "uint256"
        }
      ],
      "stateMutability": "view",
      "type": "function"
    },
    {
      "inputs": [
        {
          "internalType": "address",
          "name": "",
          "type": "address"
        }
      ],
      "name": "nextRequestAt",
      "outputs": [
        {
          "internalType": "uint256",
          "name": "",
          "type": "uint256"
        }
      ],
      "stateMutability": "view",
      "type": "function"
    },
    {
      "inputs": [],
      "name": "owner",
      "outputs": [
        {
          "internalType": "address",
          "name": "",
          "type": "address"
        }
      ],
      "stateMutability": "view",
      "type": "function"
    },
    {
      "inputs": [],
      "name": "renounceOwnership",
      "outputs": [],
      "stateMutability": "nonpayable",
      "type": "function"
    },
    {
      "inputs": [
        {
          "internalType": "uint256",
          "name": "_limit",
          "type": "uint256"
        }
      ],
      "name": "setLimit",
      "outputs": [],
      "stateMutability": "nonpayable",
      "type": "function"
    },
    {
      "inputs": [],
      "name": "token",
      "outputs": [
        {
          "internalType": "contract IERC20",
          "name": "",
          "type": "address"
        }
      ],
      "stateMutability": "view",
      "type": "function"
    },
    {
      "inputs": [
        {
          "internalType": "address",
          "name": "newOwner",
          "type": "address"
        }
      ],
      "name": "transferOwnership",
      "outputs": [],
      "stateMutability": "nonpayable",
      "type": "function"
    }
  ],
  "bytecode": {
    "object": "0x6080604052606460035534801561001557600080fd5b506040516105fb3803806105fb833981016040819052610034916100b2565b61003d33610062565b600180546001600160a01b0319166001600160a01b03929092169190911790556100e2565b600080546001600160a01b038381166001600160a01b0319831681178455604051919092169283917f8be0079c531659141344cd1fd0a4f28419497f9722a3daafe3b4186f6b6457e09190a35050565b6000602082840312156100c457600080fd5b81516001600160a01b03811681146100db57600080fd5b9392505050565b61050a806100f16000396000f3fe608060405234801561001057600080fd5b50600436106100885760003560e01c8063a4d66daf1161005b578063a4d66daf146100e7578063e9439b13146100fe578063f2fde38b1461011e578063fc0c546a1461013157600080fd5b806327ea6f2b1461008d578063715018a6146100a25780638da5cb5b146100aa5780639e353a1e146100d4575b600080fd5b6100a061009b36600461040a565b610144565b005b6100a0610151565b6000546001600160a01b03165b6040516001600160a01b0390911681526020015b60405180910390f35b6100a06100e236600461043f565b610165565b6100f060035481565b6040519081526020016100cb565b6100f061010c366004610469565b60026020526000908152604090205481565b6100a061012c366004610469565b6102e7565b6001546100b7906001600160a01b031681565b61014c610360565b600355565b610159610360565b61016360006103ba565b565b6001600160a01b0382166101b45760405162461bcd60e51b81526020600482015260116024820152701253959053125117d49150d25412515395607a1b60448201526064015b60405180910390fd5b6003548111156101f65760405162461bcd60e51b815260206004820152600d60248201526c115610d1515114d7d312535255609a1b60448201526064016101ab565b6001600160a01b03821660009081526002602052604090205442101561024a5760405162461bcd60e51b81526020600482015260096024820152682a292cafa620aa22a960b91b60448201526064016101ab565b6102564261012c61048b565b6001600160a01b038381166000818152600260205260409081902093909355600154925163a9059cbb60e01b815260048101919091526024810184905291169063a9059cbb906044016020604051808303816000875af11580156102be573d6000803e3d6000fd5b505050506040513d601f19601f820116820180604052508101906102e291906104b2565b505050565b6102ef610360565b6001600160a01b0381166103545760405162461bcd60e51b815260206004820152602660248201527f4f776e61626c653a206e6577206f776e657220697320746865207a65726f206160448201526564647265737360d01b60648201526084016101ab565b61035d816103ba565b50565b6000546001600160a01b031633146101635760405162461bcd60e51b815260206004820181905260248201527f4f776e61626c653a2063616c6c6572206973206e6f7420746865206f776e657260448201526064016101ab565b600080546001600160a01b038381166001600160a01b0319831681178455604051919092169283917f8be0079c531659141344cd1fd0a4f28419497f9722a3daafe3b4186f6b6457e09190a35050565b60006020828403121561041c57600080fd5b5035919050565b80356001600160a01b038116811461043a57600080fd5b919050565b6000806040838503121561045257600080fd5b61045b83610423565b946020939093013593505050565b60006020828403121561047b57600080fd5b61048482610423565b9392505050565b808201808211156104ac57634e487b7160e01b600052601160045260246000fd5b92915050565b6000602082840312156104c457600080fd5b8151801515811461048457600080fdfea26469706673582212205b7fbd8278514f40f2a5c0d41fff30c6b6ba2820f8fa4053024d533b38d1feb864736f6c63430008110033",
    "linkReferences": {}
  },
  "methodIdentifiers": {
    "drip(address,uint256)": "9e353a1e",
    "limit()": "a4d66daf",
    "nextRequestAt(address)": "e9439b13",
    "owner()": "8da5cb5b",
    "renounceOwnership()": "715018a6",
    "setLimit(uint256)": "27ea6f2b",
    "token()": "fc0c546a",
    "transferOwnership(address)": "f2fde38b"
  },
  "id": 0
}