{
  "_format": "hh-sol-artifact-1",
  "contractName": "Faucet",
  "sourceName": "contracts/Faucet.sol",
  "abi": [
    {
      "inputs": [
        {
          "internalType": "contract IERC20",
          "name": "_token",
          "type": "address"
        }
      ],
      "stateMutability": "nonpayable",
      "type": "constructor"
    },
    {
      "anonymous": false,
      "inputs": [
        {
          "indexed": true,
          "internalType": "address",
          "name": "previousOwner",
          "type": "address"
        },
        {
          "indexed": true,
          "internalType": "address",
          "name": "newOwner",
          "type": "address"
        }
      ],
      "name": "OwnershipTransferred",
      "type": "event"
    },
    {
      "inputs": [
        {
          "internalType": "address",
          "name": "_recipient",
          "type": "address"
        },
        {
          "internalType": "uint256",
          "name": "_amount",
          "type": "uint256"
        }
      ],
      "name": "drip",
      "outputs": [],
      "stateMutability": "nonpayable",
      "type": "function"
    },
    {
      "inputs": [],
      "name": "limit",
      "outputs": [
        {
          "internalType": "uint256",
          "name": "",
          "type": "uint256"
        }
      ],
      "stateMutability": "view",
      "type": "function"
    },
    {
      "inputs": [
        {
          "internalType": "address",
          "name": "",
          "type": "address"
        }
      ],
      "name": "nextRequestAt",
      "outputs": [
        {
          "internalType": "uint256",
          "name": "",
          "type": "uint256"
        }
      ],
      "stateMutability": "view",
      "type": "function"
    },
    {
      "inputs": [],
      "name": "owner",
      "outputs": [
        {
          "internalType": "address",
          "name": "",
          "type": "address"
        }
      ],
      "stateMutability": "view",
      "type": "function"
    },
    {
      "inputs": [],
      "name": "renounceOwnership",
      "outputs": [],
      "stateMutability": "nonpayable",
      "type": "function"
    },
    {
      "inputs": [
        {
          "internalType": "uint256",
          "name": "_limit",
          "type": "uint256"
        }
      ],
      "name": "setLimit",
      "outputs": [],
      "stateMutability": "nonpayable",
      "type": "function"
    },
    {
      "inputs": [],
      "name": "token",
      "outputs": [
        {
          "internalType": "contract IERC20",
          "name": "",
          "type": "address"
        }
      ],
      "stateMutability": "view",
      "type": "function"
    },
    {
      "inputs": [
        {
          "internalType": "address",
          "name": "newOwner",
          "type": "address"
        }
      ],
      "name": "transferOwnership",
      "outputs": [],
      "stateMutability": "nonpayable",
      "type": "function"
    }
  ],
  "bytecode": "0x608060405260646003553480156200001657600080fd5b5060405162000dac38038062000dac83398181016040528101906200003c9190620001ee565b6200005c62000050620000a460201b60201c565b620000ac60201b60201c565b80600160006101000a81548173ffffffffffffffffffffffffffffffffffffffff021916908373ffffffffffffffffffffffffffffffffffffffff1602179055505062000220565b600033905090565b60008060009054906101000a900473ffffffffffffffffffffffffffffffffffffffff169050816000806101000a81548173ffffffffffffffffffffffffffffffffffffffff021916908373ffffffffffffffffffffffffffffffffffffffff1602179055508173ffffffffffffffffffffffffffffffffffffffff168173ffffffffffffffffffffffffffffffffffffffff167f8be0079c531659141344cd1fd0a4f28419497f9722a3daafe3b4186f6b6457e060405160405180910390a35050565b600080fd5b600073ffffffffffffffffffffffffffffffffffffffff82169050919050565b6000620001a28262000175565b9050919050565b6000620001b68262000195565b9050919050565b620001c881620001a9565b8114620001d457600080fd5b50565b600081519050620001e881620001bd565b92915050565b60006020828403121562000207576200020662000170565b5b60006200021784828501620001d7565b91505092915050565b610b7c80620002306000396000f3fe608060405234801561001057600080fd5b50600436106100885760003560e01c8063a4d66daf1161005b578063a4d66daf146100ed578063e9439b131461010b578063f2fde38b1461013b578063fc0c546a1461015757610088565b806327ea6f2b1461008d578063715018a6146100a95780638da5cb5b146100b35780639e353a1e146100d1575b600080fd5b6100a760048036038101906100a2919061063c565b610175565b005b6100b1610187565b005b6100bb61019b565b6040516100c891906106aa565b60405180910390f35b6100eb60048036038101906100e691906106f1565b6101c4565b005b6100f56103f0565b6040516101029190610740565b60405180910390f35b6101256004803603810190610120919061075b565b6103f6565b6040516101329190610740565b60405180910390f35b6101556004803603810190610150919061075b565b61040e565b005b61015f610491565b60405161016c91906107e7565b60405180910390f35b61017d6104b7565b8060038190555050565b61018f6104b7565b6101996000610535565b565b60008060009054906101000a900473ffffffffffffffffffffffffffffffffffffffff16905090565b600073ffffffffffffffffffffffffffffffffffffffff168273ffffffffffffffffffffffffffffffffffffffff1603610233576040517f08c379a000000000000000000000000000000000000000000000000000000000815260040161022a9061085f565b60405180910390fd5b600354811115610278576040517f08c379a000000000000000000000000000000000000000000000000000000000815260040161026f906108cb565b60405180910390fd5b42600260008473ffffffffffffffffffffffffffffffffffffffff1673ffffffffffffffffffffffffffffffffffffffff1681526020019081526020016000205411156102fa576040517f08c379a00000000000000000000000000000000000000000000000000000000081526004016102f190610937565b60405180910390fd5b61012c426103089190610986565b600260008473ffffffffffffffffffffffffffffffffffffffff1673ffffffffffffffffffffffffffffffffffffffff16815260200190815260200160002081905550600160009054906101000a900473ffffffffffffffffffffffffffffffffffffffff1673ffffffffffffffffffffffffffffffffffffffff1663a9059cbb83836040518363ffffffff1660e01b81526004016103a89291906109ba565b6020604051808303816000875af11580156103c7573d6000803e3d6000fd5b505050506040513d601f19601f820116820180604052508101906103eb9190610a1b565b505050565b60035481565b60026020528060005260406000206000915090505481565b6104166104b7565b600073ffffffffffffffffffffffffffffffffffffffff168173ffffffffffffffffffffffffffffffffffffffff1603610485576040517f08c379a000000000000000000000000000000000000000000000000000000000815260040161047c90610aba565b60405180910390fd5b61048e81610535565b50565b600160009054906101000a900473ffffffffffffffffffffffffffffffffffffffff1681565b6104bf6105f9565b73ffffffffffffffffffffffffffffffffffffffff166104dd61019b565b73ffffffffffffffffffffffffffffffffffffffff1614610533576040517f08c379a000000000000000000000000000000000000000000000000000000000815260040161052a90610b26565b60405180910390fd5b565b60008060009054906101000a900473ffffffffffffffffffffffffffffffffffffffff169050816000806101000a81548173ffffffffffffffffffffffffffffffffffffffff021916908373ffffffffffffffffffffffffffffffffffffffff1602179055508173ffffffffffffffffffffffffffffffffffffffff168173ffffffffffffffffffffffffffffffffffffffff167f8be0079c531659141344cd1fd0a4f28419497f9722a3daafe3b4186f6b6457e060405160405180910390a35050565b600033905090565b600080fd5b6000819050919050565b61061981610606565b811461062457600080fd5b50565b60008135905061063681610610565b92915050565b60006020828403121561065257610651610601565b5b600061066084828501610627565b91505092915050565b600073ffffffffffffffffffffffffffffffffffffffff82169050919050565b600061069482610669565b9050919050565b6106a481610689565b82525050565b60006020820190506106bf600083018461069b565b92915050565b6106ce81610689565b81146106d957600080fd5b50565b6000813590506106eb816106c5565b92915050565b6000806040838503121561070857610707610601565b5b6000610716858286016106dc565b925050602061072785828601610627565b9150509250929050565b61073a81610606565b82525050565b60006020820190506107556000830184610731565b92915050565b60006020828403121561077157610770610601565b5b600061077f848285016106dc565b91505092915050565b6000819050919050565b60006107ad6107a86107a384610669565b610788565b610669565b9050919050565b60006107bf82610792565b9050919050565b60006107d1826107b4565b9050919050565b6107e1816107c6565b82525050565b60006020820190506107fc60008301846107d8565b92915050565b600082825260208201905092915050565b7f494e56414c49445f524543495049454e54000000000000000000000000000000600082015250565b6000610849601183610802565b915061085482610813565b602082019050919050565b600060208201905081810360008301526108788161083c565b9050919050565b7f455843454544535f4c494d495400000000000000000000000000000000000000600082015250565b60006108b5600d83610802565b91506108c08261087f565b602082019050919050565b600060208201905081810360008301526108e4816108a8565b9050919050565b7f5452595f4c415445520000000000000000000000000000000000000000000000600082015250565b6000610921600983610802565b915061092c826108eb565b602082019050919050565b6000602082019050818103600083015261095081610914565b9050919050565b7f4e487b7100000000000000000000000000000000000000000000000000000000600052601160045260246000fd5b600061099182610606565b915061099c83610606565b92508282019050808211156109b4576109b3610957565b5b92915050565b60006040820190506109cf600083018561069b565b6109dc6020830184610731565b9392505050565b60008115159050919050565b6109f8816109e3565b8114610a0357600080fd5b50565b600081519050610a15816109ef565b92915050565b600060208284031215610a3157610a30610601565b5b6000610a3f84828501610a06565b91505092915050565b7f4f776e61626c653a206e6577206f776e657220697320746865207a65726f206160008201527f6464726573730000000000000000000000000000000000000000000000000000602082015250565b6000610aa4602683610802565b9150610aaf82610a48565b604082019050919050565b60006020820190508181036000830152610ad381610a97565b9050919050565b7f4f776e61626c653a2063616c6c6572206973206e6f7420746865206f776e6572600082015250565b6000610b10602083610802565b9150610b1b82610ada565b602082019050919050565b60006020820190508181036000830152610b3f81610b03565b905091905056fea2646970667358221220c37208d8c25f0e39bdab5c5b617b90cd19fdfb9bf310d3e0bc6331dfaea195e364736f6c63430008110033",
  "linkReferences": {},
  "deployedLinkReferences": {}
}